:020000040000FA
:040000006D26D4286D
:08000800FF00030E8301F1006B
:100010000408F200700884001A088000840AF00ABC
:100020008C1A0C286F181928C030040603196F1594
:100030001D28E03004060319EF1572088400710EC4
:100040008300FF0E7F0E090050309900B501B60104
:10005000EF01B427DE3086050C2650303706031931
:1000600024283708193C031C0329370882072A284B
:100070000329C2282C29B628412E142E37299E295F
:10008000BB29012DC029D4299C28812C452C6A2C00
:100090007D2807291829C52FC72FDC2AAD2B2C2D29
:1000A00024088207E629E629E629402AC428C4282C
:1000B000212A282A212A2F2A402A522A282A24089B
:1000C0008207552A552A552A672AC428C4285E2A39
:1000D000C4285E2A672A672AC428C42824088207FD
:1000E000702A702A702A152BC428C428172B202B9D
:1000F000172B252B2E2B4B2B4B2B8C2A24088207BE
:10010000672B672B672B742BC428C428742B742B84
:10011000742B742B742B792B742B240882077C2B63
:100120007C2B7C2B822BC428C428822BC428822BB6
:10013000822B822BC428C4288A2624088207872B76
:10014000872B872BD72BC428C428D72BD72B0B2C36
:10015000D72BD72B122C2A2C28088207832CA92CCA
:10016000AE2CA92CB92CF02CF52CFB2C83160230CC
:10017000860083126D26270882071C2E1E2E1E2E37
:10018000232E232E0C262A29061212118316051659
:100190008312B4270613CC288617CE280C263F30AE
:1001A00099003F309900D328B42783161230990064
:1001B0002430980083129030980036309F008316C8
:1001C0009530920083124B309500003092000C3035
:1001D00097006D2642309900053099008613F0286B
:1001E0000617F22867260613F5288617F7286726CC
:1001F000B427B5010C2650303706031924283128BE
:10020000032958300429513099001A08F828413040
:100210009900831612308600831286127526752681
:10022000752686166126061E0D2959309900F82874
:10023000413099008316123086008312861275268B
:100240007526752686166126061A1E2959309900CC
:10025000F828593099002A280B30C100203084003A
:100260000C268000840AC10B302949302A290C262B
:10027000AB000C26AC00AD01AE013610EF01A03092
:10028000F000BF2783168C168312C0308B005930C4
:1002900099006F1D49296F14EF1159309900A03052
:1002A00084000008AF00840A0008B000840A5020CF
:1002B000B51884292D082B06031D62292E082C064B
:1002C00003199629EF187429C0300406031D51291B
:1002D000EF1D6829EF14C03084006F10A030F000CB
:1002E0006F11593099005129E0300406031D51293E
:1002F0006F1D7829EF10A03084006F14C030F0001B
:10030000EF1159309900512983168C1283128B01F9
:100310007526BF274E30990006262D0899002E0815
:10032000990006263308990034082A2983168C126E
:1003300083128B017526BF2750302A290C26AB006B
:100340000C26AC00AD01AE013610593099008C1E60
:10035000A7291A08AF008C1EAB291A08B0002D0877
:100360002B06031DB7292E082C0603199629593090
:1003700099005F20A729D327B5176E20B513080071
:10038000AD01AE0136108C1A2A287E2006263308CD
:100390009900340899002D082006031DC3292E0852
:1003A0002106031DC3292A28AD01AE0136108C1A7F
:1003B0002A288D200626340899002D082206031DC0
:1003C000D7292E082306031DD7292A28361CA02644
:1003D0005408033A0319EF29D40AB6260800B826B0
:1003E0007E270301A1270301A1270830D007031CA2
:1003F000FC29CF0A0319CE0AD226D4010800361CE4
:10040000D8250C30F7000830F6000A2A0C30F70027
:100410001930F60094263519482AC801C901592512
:100420004E26C80A7708C9076825B51C1C2A760815
:100430004806031D0F2A482A59254E26C90B1C2A97
:10044000482A94263519482A592554266825482AC9
:1004500094263519482A59254E266825482A942677
:100460003519482A5D250830B61CB51F1830F62509
:1004700054261730B61CB51FF62552266825482A83
:10048000361CA6265D255408033A03194A2AD40AC5
:10049000D22508001830F62554261730F6255226A6
:1004A000D401D22D361CD825282A3618592A0F27D0
:1004B00036142F0825273008252708002F08752512
:1004C0005426D225300875255426D22508002F0839
:1004D00081255426D225300881255426D2250800AE
:1004E0000527CA265708B0005808AF00B626590895
:1004F000B0005A08AF00B6265B08B0005C08AF0039
:10050000B6265D08B0005E08AF00B8267E2703015E
:10051000A1270301A1272929D327A926A322053032
:10052000D200B517AB22D20B922A023084070C30CE
:10053000D000D226AB22043084020A30D000D2266A
:10054000AB22B51329298E30E4278C30E427C82646
:100550005F30840008000008B000840A0008AF0083
:10056000840AB8267E277526E027D00AD226B82628
:100570007E277526E027DF27DF27DF27D00AD22650
:100580000800B427752683160230860083126D2674
:1005900033263A2636263C2675266D263510080069
:1005A00006121211831605168312B4277526061338
:1005B000D92A8617DB2A08000C26C5000C26C6009F
:1005C0000C26C700A92605272030CE00CF012830F1
:1005D000D000D2264708B000EF30AF00B62646085C
:1005E000B0004508AF00B626FF30B000AF00B62619
:1005F000FF30B000AF00B8267E270301A12703011A
:10060000A1277526B72343084706031D132B44086B
:10061000EF3A031D132B42084606031D132B410816
:100620004506031929294E302A29B5152E2B5523A5
:100630005F3084006008AF005F08B00050202929B7
:10064000B511251AB515B6172E2B55235F3084002A
:100650006008AF005F08B0005020292936105523EC
:100660005F3084003A23B51D2929D22561308400EA
:100670003A2329290008B000840A0008AF00840347
:100680005D251830B61B0830F62554261730B61BEA
:100690000E30F625522E361435166008AF005F086E
:1006A000B0005020DE2556232929C4255730840068
:1006B000B6140008B000AF015020840A5B30040675
:1006C000031D592BB610D225D225D2250800361C81
:1006D000C0260930F126B4000930F126B300D42534
:1006E0000800361CD825742B0430F625A725D22502
:1006F0000800361CD825742B361C0F276127B40040
:10070000D42508000530F625A725D22508003F305E
:10071000CE00FF30CF00FE30D000D2260930F126C7
:10072000D5000930F126D600CA265730840008309B
:10073000D2000930F1268000840AD20B992BC826FA
:100740000730D2000930F1268000840A0930F126F2
:100750008000840AD20BA22BFE2BB72344089900F9
:100760004108990006264208990043082A292830A2
:10077000D000CF012030CE00D2260930F126C300B0
:100780000930F126C4000930F126C2000930F126F3
:10079000C100080036147E203308E0003408DF0072
:1007A00048257E203308EE003408ED00FE2B482556
:1007B0007E203308EE003408ED00C4255730840055
:1007C0000430BD007E2034088000840ABD0BE22B7B
:1007D0007E207E207E203308D6003408D5007E207F
:1007E0003308E0003408DF007E203308E2003408DC
:1007F000E1007E203308E4003408E3004330990030
:100800001A30BD005530840000089900840A06267D
:10081000BD0B042C2A2848257E203308EE0034081E
:10082000ED00D72B361435167E203308E00034084F
:10083000DF0048257E203308EE003408ED005730F5
:1008400084000430BD007E2034088000840ABD0B83
:10085000232CFE2B7E203308E0003408DF004825DF
:100860007E203308EE003408ED0057308400043059
:10087000BD007E2034088000840ABD0B392C7E2008
:100880003308E2003408E100FE2B0C26BF007A2674
:10089000351D622CBE01AD01AE01361025184F2565
:1008A0007E2033083F06031D642C3408FF3A031DE5
:1008B000642CBE0B4E2C20082D060319622C4230EE
:1008C00099004E2C59302A29251C682C4330361E9D
:1008D0004E302A298226351D7D2CAD01AE01361001
:1008E0008D203408FF3A031D7F2C22082D06031D9E
:1008F000702C23082E06031D702C59302A294E30E7
:100900002A290000AC28C425CC25992413260230BE
:10091000F6257F30B100FE30B200E625992413267B
:100920000330F6257F30B100FE30B200E625992471
:1009300029290130F62552260730F625522608309F
:10094000F62575260130F62552260730F625522663
:100950000800C4250930F625752629290930F62511
:100960007526C4250930F62575260B30F625752623
:10097000292975263C30CE00CF010430D000D22684
:100980000C3080278030A1270030A1277C27003041
:10099000A1270030A1277C2775267526E027D022C5
:1009A00090256430F406031DED2C0530D00075262B
:1009B000C1226126D2260C3080270030A1270F30BB
:1009C000A127D003D2260C3080278F30A1270030FA
:1009D000A127DF277C277526E027752613262929DE
:1009E000C4251F30F62575262929DD250930F62571
:1009F000752675262929DD250930F62575267526E3
:100A000029290C26AF000C26B0000C26CA000C26A3
:100A1000CB00043024060319D2250B302406031919
:100A2000342D48255020B513B51C182D43302A29E4
:100A3000A51C292904302406031929291326C425B5
:100A4000CC254A08AF004B08B000B5175020B513AD
:100A5000B51C292946302A290C26AF000C26B000E7
:100A60000C26CA000C26CB00D22548255020B51CE8
:100A70003B2D43302A29D225D225D225D2254A081A
:100A8000AF004B08B0005020B51C292942302A295C
:100A9000AE01AD01D2254F25361E4A2D0800361273
:100AA00020032D06031D0800FF302E0603193616FD
:100AB00008005D250830F62508003008B2002F0830
:100AC000B1000310B20DB10D0230F625E625080085
:100AD000B5140430F625A72533082F06031D08009A
:100AE000340830060319B5100800B2003F30B100D9
:100AF0000330F6250310B20DB10DE6250830F625BA
:100B00000800B2003F30B1000330F6250310B20DEB
:100B1000B10DE6251830F62554261730F625522E4D
:100B20007930C000F501F401F3013430CF3C84008A
:100B3000750880009C30840000143330CD3C840064
:100B40000008F407F306F50AC00B952D080083167C
:100B50000614831200001030BC00861600008612B6
:100B60000000031006180314B30CB40CBC0BAD2D1D
:100B700006108316061083120310B30CB40C3F301A
:100B8000351A0F30B30508000030F6257F30B1006C
:100B9000FE30B200E62508000730C000D225C00BA9
:100BA000CE2D08000630F625AE0F0800AD0A08006D
:100BB00035160630F62536140800D225AD01AE01F3
:100BC000D2252D082006031DE02D08001030BC00A2
:100BD000B10CB20C86160318F02D00000610F22D91
:100BE0000614F22D8612BC0BE82D0800B800063062
:100BF000B900B80C86160318002E00000610022E4D
:100C00000614022E8612B90BF92D08008316000077
:100C1000981C072E83120800830100008C1E0D2EE5
:100C20001A08B700080035140612121183160516AB
:100C30008312B4277526B6283A26272E33263A265D
:100C400036263C26272E33263C2636263A2675267F
:100C50003518302E86132C2E06172E2E56302A29A4
:100C600035106D260800121575260800A51D75267D
:100C70006126080006160800831605128312051265
:100C8000080006121211831605168312B4276D266A
:100C900006134A2E86174C2E76302A2954260E30FB
:100CA000F625522E0130572EB51B6D2E2608BA00A0
:100CB0003030BB00BB0B5A2EBA0B582E0800000078
:100CC000080066266626662666266626080019300F
:100CD000C1006D26C10B692E0800BB011030BA009F
:100CE000BB0B702EBA0B702E08006D266D266D267C
:100CF0006D26080035152008031D0800210803197A
:100D00003511080035152208031D080023080319B2
:100D10003511080055308400FF308000840A6F30A0
:100D20000406031D8C2E080035113F30351A0F3094
:100D30002F06031D08003008FF3A03193515080077
:100D4000A9260527D001CF01CE01D226D401361421
:100D500008003C30CE00CF010630D000D2260C3047
:100D600080270030A1270030A12708000D30B92EC0
:100D70000F3080273008A1272F08A127D42508008D
:100D8000D001CF01CE01AD01AE01D226361408004C
:100D90003030CB2E2030CE00CF01D001D226AD0195
:100DA000AE0108007C275008A1270E30A1277C2720
:100DB000F630A1276E30A1277C274F08A1270E30DF
:100DC000A1277C27F730A1276E30A1277C274E086A
:100DD000A1270E30A1277C27F830A1276E30A12F44
:100DE000080080270030A1278316061483120830DC
:100DF000BC0086165F2686125F26031006180314B1
:100E0000D30CBC0BF92E530808007C27A630A12771
:100E10008E30A1277C27A630A1279C30A12F7C27CC
:100E2000A630A1279E30A1277C27A630A1279C3081
:100E3000A1277C270030A1270E30A1277C27A930CD
:100E4000A1276E30A12736140800CC007C274C085F
:100E5000A1270E30A1277C27A830A1276E30A1271B
:100E60007C27A630A1278430A1277C275530A127D5
:100E70000E30A1277C27A730A1276E30A1277C2721
:100E8000AA30A1270E30A1277C27A730A1276E30DA
:100E9000A1277C27A630A1278230A1277C27030128
:100EA000A1270301A1277C27323057260301A12760
:100EB0000301A1277C27A630A1279430A1277727FB
:100EC000D42D7C27A630A1278030A1277C27A830ED
:100ED000A1275030A1277C27F530A1276E30A1270C
:100EE000DF27DF270230F1267727530808007C2709
:100EF000A930A1272A30A12F0301802F0301B516A5
:100F0000D1005F2686165F268316061083125F26A1
:100F10000430BC000610D10C031806145F26861698
:100F20005F26B51E992F3C0B992F5426B51B6D26B5
:100F3000B51286125F26BC0B8A2F5226DE3086053C
:100F40005F2ED1000830BC00DE308605D10C0318BE
:100F500006145F2686165F2686125F26BC0BA42F1A
:100F6000DE3086055F26080010308500843086005C
:100F7000831617308500233086008312080018126C
:100F80001A081A081A081816080005302A295030BD
:100F900099006D26313099006D26383099006D2604
:100FA000413099002A28553084000C268000840A9C
:100FB0006D300406031DD52F5530840008007C27B2
:100FC0000030A1270030A12FFE007C27A630A127EA
:100FD0007E08A12FFE007C277E08A1270E30A12FBE
:0C0FE000FE007C277E08A1276E30A12FA8
:02400E002A0383
:1042000043004F0050005900520049004700480049
:1042100054002000320030003000370020004400FD
:1042200049005900200045004C004500430054005F
:1042300052004F004E004900430053002C004A003A
:1042400049004D00200052004F004200450052003E
:10425000540053004F004E002C0020004E0045003B
:10426000570046004F0055004E0044002000450016
:104270004C0045004300540052004F004E004900DE
:10428000430053002E0020005700450042003A0032
:1042900020005700570057002E004B0049005400E3
:1042A00053005200550053002E0043004F004D00B4
:1042B0002C0020005700570057002E004E004500EC
:1042C000570046004F0055004E00440045004C008A
:1042D00045004300540052004F004E004900430087
:1042E00053002E0043004F004D005C004400490085
:0242F000590073
:00000001FF
