:020000040000FA
:02000000D52801
:08000800FF00030E8301F1006B
:100010000408F200700884001A088000840AF00ABC
:100020008C1A0C286F181928C030040603196F1594
:100030001D28E03004060319EF1572088400710EC4
:100040008300FF0E7F0E090050309900B501B60104
:10005000EF018501FB2550303706031924283708A6
:10006000193C031CEF28370882072928EF28CC28E1
:100070001629B428282E032E21298829A529F52CF4
:10008000AA29BE299A287B2C3F2C642C7B28F32894
:1000900003299D2F9F2FAE2AA62B1B2D24088207F4
:1000A000D029D029D0292A2AE929F0290B2A122A75
:1000B0003C2A192A2A2A3C2A122A240882073F2A83
:1000C0003F2A3F2A512ACE28CE28482ACE28CE2899
:1000D000512A512ACE28CE28240882075A2A5A2A81
:1000E0005A2AE42AE62AF52A032B0C2B372B112B4C
:1000F0001A2B372B412B732A24088207602B602B85
:10010000602B6D2B6A2B6D2B6D2B6D2B722B6D2B3A
:100110006D2B722B6D2B24088207752B752B752B7D
:100120007B2BCE28CE287B2BCE28CE287B2B7B2B5F
:10013000CE28CE28622624088207802B802B802B95
:10014000D12B242C052CD12BD12B0C2CD12BD12B0A
:100150000C2C242C280882077D2CA32CA92CA32C42
:10016000B42CEA2CEF2CEF2C83160430850083127C
:10017000452627088207062E082E0C2E102E142E38
:100180008316043085008312452627088207D12F65
:10019000D32FD72FDB2FDF2FFB2514298D27FB250E
:1001A0003F3099003F309900D4288D2707309F00B9
:1001B00083161230990024309800831290309800F2
:1001C000452642309900023099008D27B501FB2564
:1001D00050303706031924282F285830F028513082
:1001E00099001A08E528413099008316851083127A
:1001F00085104D264D264D2685143D26051DF828D3
:1002000059309900E52841309900831685108312F2
:1002100085104D264D264D268514302605190829B2
:1002200059309900E5285930990029280B30C10030
:1002300020308400FB258000840AC10B1A29493034
:100240001429FB25AB00FB25AC00AD01AE01361037
:10025000EF01A030F000972783168C168312C03070
:100260008B00593099006F1D33296F14EF115930ED
:100270009900A03084000008AF00840A0008B00094
:10028000840A4E20B5186E292D082B06031D4C2913
:100290002E082C0603198029EF185E29C0300406A9
:1002A000031D3B29EF1D5229EF14C03084006F104D
:1002B000A030F0006F11593099003B29E03004065E
:1002C000031D3B296F1D6229EF10A03084006F14BD
:1002D000C030F000EF11593099003B2983168C1281
:1002E00083128B014D2697274E309900F5252D0856
:1002F00099002E089900F52533089900340814292F
:1003000083168C1283128B014D26972750301429A7
:10031000FB25AB00FB25AC00AD01AE01361059301A
:1003200099008C1E91291A08AF008C1E95291A0875
:10033000B0002D082B06031DA1292E082C06031939
:100340008029593099005D209129AB27B5176C2081
:10035000B5130800AD01AE0136108C1A29287C2097
:10036000F52533089900340899002D082006031D4F
:10037000AD292E082106031DAD292928AD01AE01A6
:1003800036108C1A29288B20F525340899002D0861
:100390002206031DC1292E082306031DC129292871
:1003A000361C78265408033A0319D929D40A8E2614
:1003B00008009026592703017C2703017C27083079
:1003C000D007031CE629CF0A0319CE0AAA26D401B6
:1003D0000800361CC7250C30F7000830F600F42959
:1003E0000C30F7001930F6006C263519322AC80196
:1003F000C90148252C26C80A7708C9075725B51C06
:10040000062A76084806031DF929322A48252C2693
:10041000C90B062A322A6C263519322A482532267B
:100420005725322A6C263519322A48252C2657257D
:10043000322A6C263519322A4C250830B61CB51FD5
:100440001830E52532261730B61CB51FE5253026B5
:100450005725322A361C7E264C255408033A0319A8
:10046000342AD40AC12508001830E5253226173071
:10047000E5253026D401C12D361CC725122A361891
:10048000432AE82636142F08FE263008FE260800E8
:100490002F0864253226C125300864253226C1255F
:1004A00008002F0870253226C12530087025322615
:1004B000C1250800DD26A2265708B0005808AF0065
:1004C0008E265908B0005A08AF008E265B08B0008F
:1004D0005C08AF008E265D08B0005E08AF00902675
:1004E0005927B8271329AB27812690220530D2003F
:1004F000B5179822D20B792A023084073030CE000B
:10050000CF010C30D000AA2698220430840230306B
:10051000CE00CF010A30D000AA269822B5131329A5
:100520008E30BC278C30BC27A0265F3084000800AA
:100530000008B000840A0008AF00840A90265927FA
:100540004D26B827D00AAA26902659274D26B82727
:10055000B727B727B727D00AAA260800FB25C5006A
:10056000FB25C600FB25C7008126DD262030CE00F6
:10057000CF012830D000AA264708B000EF30AF00E6
:100580008E264608B0004508AF008E26FF30B0002A
:10059000AF008E26FF30B000AF0090265927B82755
:1005A0004D26B02343084706031DE22A4408EF3ACC
:1005B000031DE22A42084606031DE22A41084506B9
:1005C000031913294E301429B5151A2B5F308400F6
:1005D0006008AF005F08B0006430C90048252C26D1
:1005E000C90BEE2ACC254F2313294E235F308400FC
:1005F0006008AF005F08B0006430C90048252C26B1
:10060000C90BFE2A13294E235F3084006008AF0017
:100610005F08B0004E201329B511251AB515B6177D
:100620001A2B4E235F3084006008AF005F08B000D3
:100630004E20132936104E235F3084002623B51D2B
:100640001329C12561308400262313290008B00036
:10065000840A0008AF0084034C251830B61B08300C
:10066000E52532261730B61B0E30E525302E361420
:1006700035166008AF005F08B0004E20CD254F232F
:1006800013296008AF005F08B0004E203725C12550
:10069000C125C125C125C1254F231329B3255730B5
:1006A0008400B6140008B000AF014E20840A5B300D
:1006B0000406031D522BB610C125C125C125080013
:1006C000361C98260930C926B4000930C926B30063
:1006D000C3250800361CC7256D2B0430E52596255B
:1006E000C1250800361CC7256D2B361CE8263B2784
:1006F000B400C32508000530E5259625C12508006E
:100700003F30CE00FF30CF00FE30D000AA260930A7
:10071000C926D5000930C926D600A2265730840044
:100720000830D2000930C9268000840AD20B922BEF
:10073000A0260730D2000930C9268000840A09307B
:10074000C9268000840AD20B9B2BF82BB0234408C7
:10075000990041089900F525420899004308142999
:100760002830D000CF012030CE00AA260930C9267B
:10077000C3000930C926C4000930C926C2000930A7
:10078000C926C1000800361435167C203308E00065
:100790003408DF0037257C203308EE003408ED00F4
:1007A000F82B37257C203308EE003408ED00B32504
:1007B000573084000430BD007C2034088000840A57
:1007C000BD0BDC2B7C207C207C203308D600340839
:1007D000D5007C203308E0003408DF007C2033089B
:1007E000E2003408E1007C203308E4003408E30030
:1007F000433099001A30BD0055308400000899003C
:10080000840AF525BD0BFE2B292837257C203308CB
:10081000EE003408ED00D12B361435167C20330859
:10082000E0003408DF0037257C203308EE00340870
:10083000ED00573084000430BD007C203408800077
:10084000840ABD0B1D2CF82B7C203308E0003408F3
:10085000DF0037257C203308EE003408ED005730E8
:1008600084000430BD007C2034088000840ABD0B65
:10087000332C7C203308E2003408E100F82BFB2500
:10088000BF005226351D5C2CBE01AD01AE013610F5
:1008900025183E257C2033083F06031D5E2C3408B6
:1008A000FF3A031D5E2CBE0B482C20082D060319B1
:1008B0005C2C42309900482C59301429251C622C9C
:1008C0004330B61D4E3014295A26351D772CAD0104
:1008D000AE0136108B203408FF3A031D792C220814
:1008E0002D06031D6A2C23082E06031D6A2C593081
:1008F00014294E3014290000AA28B325BB259324BF
:1009000002260230E5257F30B100FE30B200D52549
:10091000932402260330E5257F30B100FE30B2007B
:10092000D525932413290130E52530260730E52508
:1009300030260830E5254D260130E52530260730E4
:10094000E52530260800B3250930E5254D264D263E
:1009500013290930E5254D26B3250930E5254D2617
:100960000B30E5254D2613294D263C30CE00CF0116
:100970000430D000AA260C305B2780307C27003062
:100980007C27572700307C2700307C2757274D26AF
:100990004D26CE277F256430F406031DE72C053055
:1009A000D0004D26C0203D26AA260C305B27003003
:1009B0007C270F307C27D003AA260C305B278F3092
:1009C0007C2700307C27B72757274D26B8274D2690
:1009D00002261329B3251F30E5254D261329CC25E2
:1009E0000930E5254D264D261329FB25AF00FB25B3
:1009F000B000FB25CA00FB25CB00043024060319F8
:100A0000C12537254E20B513B51C082D43301429B8
:100A1000A51C13290430240603191329B325BB256B
:100A20004A08AF004B08B000B5174E20B513B51CEF
:100A3000132946301429FB25AF00FB25B000FB2508
:100A4000CA00FB25CB00C12537254E20B51C2A2D19
:100A500043301429C125C125C125C1254A08AF004D
:100A60004B08B0004E20B51C132942301429AE01AA
:100A7000AD01C1253E25B61D392D0800B611200354
:100A80002D06031D0800FF302E060319B6150800B9
:100A90004C250830E52508003008B2002F08B100C9
:100AA0000310B20DB10D0230E525D5250800B514AF
:100AB0000430E525962533082F06031D0800340869
:100AC00030060319B5100800B2003F30B100033002
:100AD000E5250310B20DB10DD5250830E525080038
:100AE000B2003F30B1000330E5250310B20DB10D67
:100AF000D5251830E52532261730E525302E7930FA
:100B0000C000F501F401F3013430CF3C84007508D6
:100B100080009C30840000143330CD3C84000008F9
:100B2000F407F306F50AC00B842D0800831605149C
:100B3000831200001030BC008514000085100000F6
:100B4000031005180314B30CB40CBC0B9C2D05103A
:100B50008316051083120310B30CB40C3F30351A02
:100B60000F30B30508000030E5257F30B100FE30BE
:100B7000B200D52508000730C000C125C00BBD2D2F
:100B800008000630E525AE0F0800AD0A080035164E
:100B90000630E52536140800C125AD01AE01C1259A
:100BA0002D082006031DCF2D08001030BC00B10C0D
:100BB000B20C85140318DF2D00000510E12D05147B
:100BC000E12D8510BC0BD72D0800B8000630B90008
:100BD000B80C85140318EF2D00000510F12D051435
:100BE000F12D8510B90BE82D080083160000981C24
:100BF000F62D83120800830100008C1EFC2D1A08BC
:100C0000B700080035148D274D26B4282226172E4C
:100C100022261E262426172E22261E262626172E9C
:100C200024261E262226172E26261E262226351884
:100C30001B2E56301429351045260800A51D4526C3
:100C40003D260800861608000617080086170800CB
:100C50008D2745267630142932260E30E525302E94
:100C60000130352EB51B452E2608BA003030BB00AA
:100C7000BB0B382EBA0B362E0800422642264226DF
:100C800042264226080000000800BB011030BA00CE
:100C9000BB0B482EBA0B482E080045264526452694
:100CA0004526080035152008031D080021080319F2
:100CB0003511080035152208031D08002308031903
:100CC0003511080055308400FF308000840A6F30F1
:100CD0000406031D642E080035113F30351A0F300D
:100CE0002F06031D08003008FF3A031935150800C8
:100CF0008126DD26D001CF01CE01AA26D4013614EB
:100D000008003C30CE00CF010630D000AA260C30BF
:100D10005B2700307C2700307C2708000D30912EA7
:100D20000F305B2730087C272F087C27C32508005D
:100D3000D001CF01CE01AD01AE01AA2636140800C4
:100D40003030A32E2030CE00CF01D001AA26AD0135
:100D5000AE010800572750087C270E307C27572704
:100D6000F6307C276E307C2757274F087C270E30C3
:100D70007C275727F7307C276E307C2757274E0873
:100D80007C270E307C275727F8307C276E307C2755
:100D900008005B2700307C27831605148312083077
:100DA000BC00851443268510432603100518031440
:100DB000D30CBC0BD12E530808005727A6307C2734
:100DC0008E307C275727A6307C279C307C27080054
:100DD0005727A6307C279E307C275727A6307C27B4
:100DE0009C307C27572700307C270E307C275727E4
:100DF000A9307C276E307C2736140800CC0057279A
:100E00004C087C270E307C275727A8307C276E3073
:100E10007C275727A6307C2784307C2757275530DE
:100E20007C270E307C275727A7307C276E307C2705
:100E30005727AA307C270E307C275727A7307C27DE
:100E40006E307C275727A6307C2782307C27572797
:100E500003017C2703017C27572732303526030105
:100E60007C2703017C275727A6307C2794307C27DA
:100E70005127C32508005727A6307C2780307C27C0
:100E80005727A8307C2750307C275727F5307C2700
:100E90006E307C27B727B7270230C9265127530861
:100EA00008005727A9307C272A307C270800030137
:100EB0005B2F0301B516D100432685144326831604
:100EC0000510831243260430BC000510D10C031812
:100ED0000514432685144326B51E742F3C0B742F2E
:100EE0003226B51B4526B51285104326BC0B652F4F
:100EF0003026850143260800D1000830BC0085015A
:100F0000D10C031805144326851443268510432667
:100F1000BC0B7F2F85014326080085010430860025
:100F20008316073085001A308600831208001812D5
:100F30001A081A081A081816080002301429503026
:100F400099004526313099004526383099004526CC
:100F500041309900292855308400FB258000840AFF
:100F60006D300406031DAD2F55308400080057274F
:100F700000307C2700307C2FFE005727A6307C27CE
:100F80007E087C2FFE0057277E087C270E307C2FA2
:100F9000FE0057277E087C276E307C2F8D274D263C
:100FA0004D2E2226E22F22261E262426E22F22263E
:100FB0001E262626E22F24261E262226E22F26265D
:060FC0001E2622264D2E24
:02400E002A0383
:1042000043004F0050005900520049004700480049
:1042100054002000320030003000370020004400FD
:1042200049005900200045004C004500430054005F
:1042300052004F004E004900430053002C004A003A
:1042400049004D00200052004F004200450052003E
:10425000540053004F004E002C0020004E0045003B
:10426000570046004F0055004E0044002000450016
:104270004C0045004300540052004F004E004900DE
:10428000430053002E0020005700450042003A0032
:1042900020005700570057002E004B0049005400E3
:1042A00053005200550053002E0043004F004D00B4
:1042B0002C0020005700570057002E004E004500EC
:1042C000570046004F0055004E00440045004C008A
:1042D00045004300540052004F004E004900430087
:1042E00053002E0043004F004D005C004400490085
:0242F000590073
:00000001FF
